:400000000080002011000000DD140000DD14000008B5044B1A6803F53F5302331A6001F065FA00BFFA46004010B5054C237833B9044B13B10448AFF300800123237010BD35
:400040003883FF1F00000000F0320000084B10B51BB108490848AFF300800848036803B910BD074B002BFBD0BDE81040184700BF000000003C83FF1FF0320000C880FF1FDA
:400080000000000008B5002001F0D2FD08BD00BF684620F007018D4619B572B6EFF311841E4B1B68DBB20F2B10D9103B23F0030202F1604202F564421168DB0003F0180386
:4000C000E0229A400A4022FA03F306E00F2B03D1134B1B681B0E00E0002383F31188114A136801331360012B01D102F02FFF62B6FFF7C8FF72B684F3118801F09DFF094A30
:400100001368013B13601BB902F029FF02F0EDFE62B6BDE819408546704700BF04ED00E020ED00E0E084FF1F08B562B645F6BF52054B1A60054A136843F0020313600020B3
:4001400002F0BCF8FBE700BF14E000E010E000E008B502F019FA00F03BFF00F08FFF00F09BFC0021084600F037FC1D4802F052FA00F0F2FA012806D11A4802F04BFA1A4897
:4001800000F006FF05E0194802F044FA184800F0FFFE02F093F9174A136843F0050313600A220121002001F0C5FB05220121084601F0C0FB022001F049FB032001F046FB71
:4001C000042001F043FB052001F040FB012001F03DFB012000F09EFA02F0B6F808BD00BFF43200000433000024330000443300006433000010E000E008B5114B5B78012B9A
:4002000015D10F4B1B79012B11D10D4BDB78012B0DD10B4B9B78012B09D1094B5B79012B05D1074B1B78012B01D100F08FFA044B00225A701A71DA709A705A711A70DCE700
:400240005883FF1F38B54FF000031B4A92F90020002A00DD53001C46184B9B6893F82020012A02D1586A01F0F1FE144B1C7000225A6002225A709B6893F82020012A02D138
:40028000586A02F089F80D4B9B685D699B6873B13DB90CE0996855F8240001F06FFD013400E00024054B9B681A699442F2D3012000F05EFA38BD00BFCC80FF1FD880FF1F69
:4002C00038B5204A11784FF000035268312A00D80B461C461C4B9B6893F82020012A02D1586A01F0B3FE184B1C7000225A6002225A709B6893F82020012A02D1586A02F06C
:400300004BF8114B9B685D699B6873B13DB90CE0996855F8240001F031FD013400E00024094B9B681A699442F2D3074B5B78022B03D1054883685B689847022000F018FAE9
:4003400038BD00BFD880FF1FE480FF1F30B583B0224B1B788DF804304FF000039DF8042012F0FF0F01D14FF001031C461C4B9B6893F82020012A02D1586A01F067FE184BD0
:400380001C7000225A6002225A709B6893F82020012A02D1586A01F0FFFF114B9B685D699B6873B13DB90CE0996855F8240001F0E5FC013400E00024094B9B681A6994420F
:4003C000F2D3074B5B78022B03D1054883685B689847032000F0CCF903B030BDD880FF1FF080FF1F00B583B000230193012001F045FD01A9032001F0A1FC019801F070FC78
:40040000019A0121014800F07FFEEFE78433000030B583B02A4B9B681A68002A4BD0284A127802A800F8042D1B68984768BB9DF80440234B9B6893F82020012A02D1586A3C
:4004400001F004FE1E4B1C7000225A6002225A709B6893F82020012A02D1586A01F09CFF174B9B685D699B682BB33DB923E0996855F8240001F082FC013400E00024104B36
:400480009B681A699442F2D315E00D4B03225A709B68DD69DB6873B13DB90CE0D96855F8240001F06BFC013400E00024044B9B689A699442F2D3002000F05AF903B030BD17
:4004C000CC80FF1F10B40139002305E0C25C445CC4544254013301398B42F7DB002010BC704700BF38B50C4630230B704B708B702023CB7010B900230B7125E00346002892
:4005000004DA43425BB22D22CA7003E0002801DD2B22CA7000200EE00C4A82FB0321DA17C2EBA10202EB820569005B1A5BB23033235453B20130002BEED1002525710421D3
:400540002046FFF7BFFF2571002038BD6766666630B58BB0294B1B788DF82430284B0693002307938DF820309DF824000AAC04F81C3D214640B2FFF7B5FF079406AA07CA9C
:400580008DE807001F4B5B6993F82020012A02D1586A01F05BFD1B4B9DE8070083E8070000221A6102221A735B6993F82020012A02D1586A01F0F0FE124B5B695D699B68F3
:4005C00073B13DB90CE0996855F8240001F0D6FB013400E000240B4B5B691A699442F2D3084B1B7B022B03D1064843695B689847042000F0BDF80BB030BD00BFCC80FF1F30
:4006000090330000FC80FF1F10B582B000240194062001F033FC01A9022001F08FFB019801F05EFB019B13F0040F09D022460221064800F051FD0A3414F5807F00D9002458
:40064000019A0121024800F05FFDE1E7A4330000B433000000B583B000230193012001F00DFC01A9042001F069FB019801F038FB019A0121014800F047FDEFE7C033000004
:4006800008B5174B5B68053313F1011F01D8144A5360052000F06CF8124B5B78012B1DD1104B1B79012B19D10E4BDB78012B15D10C4B9B78012B11D10A4B5B79012B0DD1E1
:4006C000084B1B78012B09D100F040F8054B00225A701A71DA709A705A711A7008BD00BFD880FF1F5883FF1F10B5084C22680121074800F0F1FC23680533236013F5807F45
:4007000001D90022226001F01FFE10BD5483FF1FCC33000008B5032816D8DFE800F002070C110021022001F03FF80DE00021032001F03AF808E00021012001F035F803E0CF
:400740000021084601F030F8002008BD08B501F04BF8002008BD00BF044B1B7803F0080303F0FF0003B10120704700BFC080FF1F05281BD8DFE800F00B03130F07170122B4
:400780000B4B5A7070470122094B1A7170470122074B1A7070470122054BDA7070470122034B9A7070470122014B5A71704700BF5883FF1F38B5134B988908B319461C8979
:4007C000631C9BB2104AA2FB03525209642505FB12330B810138888101EB44018B7B13B1012B04D006E0002002F0CEFA02E0012002F0CAFA034B03EB4404E07B02F078FA33
:4008000038BD00BF6083FF1F1F85EB5130B5ABB01B4B9B89632B17D92AAD032305F8A83D184B1868CDF80100174C0FCCCDF81100CDF81510CDF81920CDF81D30284600F0E7
:40084000B1FB6FF0070019E00D4D6C89621C92B205EB4404A073E1730C49A1FB02014909642000FB11226A8101339BB2AB81012B03D1FFF79FFF002000E000202BB030BDB1
:400880006083FF1F30390000343900001F85EB512DE9F04180460E4617461D462A210020FFF7B4FF00210120FFF7B0FF194C94F8D6104144C9B20120FFF7A8FF002101208E
:4008C000FFF7A4FF94F8D6103944C9B20120FFF79DFF2B210020FFF799FF00210120FFF795FF94F8D7103144C9B20120FFF78EFF00210120FFF78AFF94F8D7102944C9B259
:400900000120FFF783FF2C210020FFF77FFFBDE8F08100BF6083FF1F10B5044636210020FFF774FF04F003002A4B83F8D80003284ED8DFE800F00215283BC2210120FFF73D
:4009400065FF244BA022A3F8DA208022DA8093F8DC2083F8D62093F8DD2083F8D72010BDA2210120FFF752FF1A4BA022DA808022A3F8DA2093F8DC2083F8D72093F8DD202E
:4009800083F8D62010BD08210120FFF73FFF114BA022A3F8DA208022DA8093F8DC2083F8D62093F8DD2083F8D72010BD62210120FFF72CFF074BA022DA808022A3F8DA20A3
:4009C00093F8DC2083F8D72093F8DD2083F8D62010BD00BF6083FF1F024BA3F8DE00A3F8E01070476083FF1F2DE9F0411F46BDF818501F4BB3F90630834236DD90461C4A46
:400A0000B2F8DA20914230DA00EB0804013C9C4202DB1B1A0FFA83F87B18013B9A4201DC571A3FB2C0B2C9B2CB19013B00EB0802013ADBB2D2B2FFF72BFF2E0AEDB201203D
:400A400002F0A2F90FE031460220FFF7DFFE29460220FFF7DBFE013C24B200E04446002CF1DC013F3FB2002FF8DCBDE8F08100BF6083FF1F00B583B0064AB2F9DA30B2F916
:400A80000620009000210846FFF7AEFF03B05DF804FB00BF6083FF1FF8B5364B8022DA80A022A3F8DA20002483F8D840A3F8DE40A3F8E04001251D714FF6FF72A3F8E220F4
:400AC000A3F8E4405D711C6083F8DD4083F8DC4083F8D64083F8D7401C815C819C8102F045F9284602F05CF9642000F03DFE204602F056F9642000F037FE284602F050F977
:400B0000142000F031FE29462046FFF77FFE322000F02AFE11212046FFF778FE782000F023FE0F22144D14E02C4614F8021B0020FFF76CFE6A78254606E06E1C29780120E3
:400B4000FFF764FE22463546531EDCB2002AF4D13A46531EDFB2002AE6D10220FFF7DCFE0020FFF787FF02F087F9642002F03EF9F8BD00BF6083FF1FD9330000002821DB97
:400B8000114BB3F9063098421CDA00291ADB0E4BB3F8DA30994215DA10B51446C0B2C9B24B1C421CDBB2D2B2FFF772FE012002F0EBF8210A0220FFF729FEE1B20220FFF7DE
:400BC00025FE10BD704700BF6083FF1FF8B51E46164BB3F90630834226DD1546134BB3F8DA30994220DA0A44013A934201DC5D1A2DB2C0B2C9B24B19013BDBB20246FFF746
:400C000047FE370AF6B2012002F0BEF808E039460220FFF7FBFD31460220FFF7F7FD25466A1E14B2002DF2D1F8BD00BF6083FF1F2DE9F04F8BB00290039115460493BDF848
:400C400050709DF854A07F4B1A68002A40F09080B3F906300146834240F3F180794BB3F8DA300398984280F2EA800AEB4A0253000B44012B00F1E38000EBCA03012B00F1E1
:400C8000DE804FF00008894683460595049E4EE0059B03EB830343446B4A134493F8585000243EE015F0010F1BD0BAF1010F09D104EB0B0108EB0900324609B200B2FFF70A
:400CC0005DFF2BE01FFA8AF00FFA8AF204FB00B108FB00900096134609B200B2FFF784FE1CE0BE421AD0BAF1010F09D104EB0B0108EB09003A4609B200B2FFF73FFF0DE0DE
:400D00001FFA8AF00FFA8AF204FB00B108FB00900097134609B200B2FFF766FE013464B26D08072CBEDD08F101084FFA88F8B8F1040FADDD049BBB4200F08180BAF1010FBA
:400D400008D1029805303B460822039900B2FFF73DFF74E01FFA8AF303EB8300029A10440097DB005246039900B2FFF73DFE66E0137AEB1ADBB2506800EBC301D2F800B086
:400D800030F8337091F80280CB78079391F90530089391F906200992BAF1010F04D91BB2059313B2069302E000230693059300231C46994640E05E1CF6B213F0070F03D1B7
:400DC0007B1C1BF807409FB214F0800F27D0BAF1010F0DD1099B039A99184944089B029A98182844049A09B200B2FFF7C7FE16E0059B58191FFA8AF3069A02EB09010FFAB1
:400E00008AFE039A01FB0321029A00FB0320049B00937246734609B200B2FFF7E5FD6400E4B20135EDB2334600E000254545C2D309F101095FFA89F9079A9145F5D30BB086
:400E4000BDE8F08F6083FF1FD833000070B582B04E4B1B68002B43D10A280BD14B4B0022A3F8DE201979B3F8E02002EBC102A3F8E02088E00D2800F08680444B5B79ABB157
:400E8000424A117901EB41046300B2F8DE402344B2F90620934209DD3C4B0022A3F8DE20B3F8E02002EBC101A3F8E010374CB4F8E230B4F9E010B4F9DE5022790192B4F813
:400EC000E420009202462846FFF7B2FE237903EB43035A00B4F8DE301344A4F8DE3052E00A280CD1294A0021A2F8DE10997A1079B2F8E03000FB0133A2F8E03043E00D2837
:400F000041D01A7A90423ED3597A88423BD8821A5C6804EBC204A278E1785AB351B394F905501A494979A9B118490E792A44B1F8DE5002FB0652B1F906108A420ADD134A2D
:400F40000021A2F8DE109B7AB2F8E01006FB0316A2F8E0600D4AB2F8E230B2F9E010B2F9DE5016790196B2F8E420009202462846FFF75EFE2179054B1879B3F8DE2000FB11
:400F80000122A3F8DE2002B070BD00BF6083FF1F10B5044602E00134FFF758FF20780028F9D110BD10B50446013001F033FB064801F030FB04F1110001F02CFB034801F0E9
:400FC00029FB002010BD00BF583900004439000008B501F037FD01F049FD002008BD00BF70B506460D46002001F044FD002001F04DFD84B2012001F049FD80B2D4F50064F8
:4010000000D50F3444F307143470D0F5006000D50F3040F307102870002070BD38B504460D46032824D8DFE800F00209101E084601F088FB104B1D55002038BD084601F0B6
:401040008DFB0D4B1D55002038BD084601F092FB094B1D55002038BD29462046FFF7DEFF0134E4B200E00024022CF5D9002038BD6FF0130038BD00BF4884FF1F38B50024B9
:40108000254609E00021094B19552046FFF7C6FF00B105460134E4B2022CF3D901F040FC01F0F6FB01F0ACFB284638BD4884FF1F70B50E461546074C34F8100001F07AFB5A
:4010C00034F8160001F0BEFB34F8150001F002FC002070BD5C390000F8B506460F46154600240DE006EBC4039A88B5FBF2F302FB13531BB956F83430002098470134A4B256
:40110000BC42EFD30020F8BDF8B505460E461746002409E005EBC4035868384202D055F8343098470134A4B2B442F3D30020F8BD08B5037823B900210846FFF76FFF03E02B
:4011400001210020FFF76AFF002008BD08B5002201781046FFF7ACFF002008BD30B583B0054600248DF8074002A901F8024D0DF10700FFF735FF9DF906302B70204603B0C0
:4011800030BD00BF10B50446124B1B78012B0CD1006801F03FFA1E210020FFF71DFC2068FFF7F6FE00220B4B1A70206801F032FA094801F02FFA606801F02CFA074801F0D8
:4011C00029FA28210020FFF707FC6068FFF7E0FE002010BD1481FF1F303C000044390000FEE700BFF0B40022174611E050F82760F3B226F0FF0608E001EB420511F8124088
:401200006D78A5550132013BDBB2002BF4D101372A2FEBD9F0BC704708B50A46002102F05EF808BD38B500242D4B1C80582202331A70022202331A8018232A490B700E2048
:401240000231088002310B70192502310D8002310B7041F2BF200231088002310B70224B1A7008224FF040231A70032103F5007319701E4B1B78DBB21D490B701D4B1A800D
:4012800041F25122023B1A800CE01B4B1B7803F0010343EA440404F003044FF4F07001F007FE013D0DB1032CEFD115B90320FFF797FF124B4FF480721A8007221A70002263
:4012C0000F490A704820023108701A700222033B1A700C4A137843F01F03137038BD00BF80400040864000400043004008010049A146004022420040254200400440004055
:4013000006400040A2430040F8B5164B1B78DBB2154E3478E4B2154F3D78EDB203F00701134A11701B090132137044F00303337045F003033B7003220E4B1A7040230E4A3E
:4013400013700232137030220C4B1A70202203331A700A2000F01EFA3D7034704422084B1A70F8BDCF010049F8460040F94600406E5800400D51004001590040205B004074
:401380007658004008B501F09FFF08BD38B572B63C4A137843F00403137000240CE03A4D630019194A0011462A44084691882858FFF732FF0134E4B2072CF0D900240BE00C
:4013C0003149A3001819420088180622416B006BFFF7D8FF0134E4B2002CF1D02B494FF09040FFF7FFFE04212948FFF715FF042228492948FFF7C6FF284A137843F00203EB
:4014000013701032137843F002031370244C237843F040032370A2F58632513A137843F01003137008221F491F48FFF7ABFF0A221E491F48FFF7A6FF08221E491E48FFF744
:40144000A1FF08221D491E48FFF79CFF08221D491D48FFF797FF1D4A137843F0080313701B4D61232B70FFF7DDFE81232B700122184B1A70FFF748FF0E2221461648FFF742
:4014800081FF38BDE8460040343C0000AC00004800760040480D00480876004003500140A04300401C0D004802510040240D0048C0510040300D004812510040380D00489A
:4014C00022510040400D004832510040224300400048004004000840B043004008B501F0C7FE03680C2B00D1FEE7FEE708B5104E104D16E029686B68AC68002204E051F850
:40150000040B43F8040B0432A242F8D1E868002203E0002143F8041B04328242F9D11035013E002EE6D101F0A9FEFEF7FDFDFEE701000000B83F000008B5114A114B1A6020
:40154000114A136843F40073136000230AE0032B03D80E4A52F8231000E00D490D4A42F8231001332F2BF2D90B4B1A780B4B1A70084A0B4B1A60FFF709FF00F013F808BD92
:401580000004FA050CED00E014ED00E000000000DD1400000080FF1FBC760040C080FF1F08ED00E00B4A7F2313708021517007E0DA0002F1804202F5F042013BDBB2137073
:4015C000002BF5D1DB0003F1804303F5F04300221A7070471881FF1F172815D831B103010A495A5C42F020025A5405E0030107495A5C02F0DF025A540001044A835C43F035
:401600000103835400207047012070471070004017280CD80001074BC1180A7942F004020A71C25C42F00102C254002070470120704700BF1070004017280BD80001064AD1
:40164000835C03F0F103490001F00E011943815400207047012070471070004041F6FF73994201D14FF4005141F6FF739A4201D14FF40052172808D8C00000F1804000F560
:40168000EC408180C280002070470120704700BF172805D8034B03EB0010417200207047012070471070004017281BD810B4C00000F1804404F5EC44D201D2B201F07F0167
:4016C000114321709DF804201201D2B203F00F03134363709DF8083003F00F03A3700020E07001E00120704710BC704710B501F0E7FB0A4B5B78182B0BD9084A1478013BF5
:401700005370E30003F1804303F5F0431B78137000E0FF2401F0D8FB204610BD1881FF1F10F0800F0CD111F4704F0BD1C00000F1804000F5F04001808270C370002070473B
:40174000012070470120704710F0800F08D1C00000F1804000F5F0408180C280002070470120704701BE704710B5044605E0084B186801F09DFBA4F50044B4F5004FF6D860
:40178000034B586800FB04F001F092FB10BD00BF2081FF1F08B5034B1B7A00FB03F001F087FB08BD2081FF1F0E4B1A7802F0FC0200F00300104318701A7842F080021A7065
:4017C0001A7802F07F021A7049011A7801F0600102F09F02114319701A7842F010021A70704700BF834300400122014B1A7070478443004070B504460E46074B1D681F2848
:4018000002D90020FFF7AEFF04F01F04103455F8240045F8246070BD08ED00E038B504460D46072902D90020FFF79CFF1F2C02D90020FFF797FF04F01F0000F1604000F5CA
:4018400064406D01EDB2057038BD00BF38B5EFF3108572B605284ED82D4B53F82030002B4BD02B4A013B42F820302A4B53F82030032B07D10222274B43F820200022264B61
:4018800043F8202000F09CFC244B1B68002B36D1234B1C6800F072FCB0F1FF3F31D0214B53F82020204B1B689A422CD9B4F1FF3F03D00221174A42F824101C4A52F8202073
:4018C0001343194A13600022124B43F8202000F011FC174B53F820304BB10024144B43F8204040F0004001F043FB20460CE001F03FFB002008E0032006E0042004E0002059
:4019000002E0002000E0002085F3108838BD00BFB481FF1F6882FF1F9084FF1FE084FF1F4C82FF1F543E0000B084FF1F1C3E00006084FF1FF8B5EFF3108472B6012825D835
:4019400000EB4005AB00184DEB5803EB4306B500164E75598D421BD34AB103EB43039E00124B1E44B3689A4214D3954214D3A9B103010F4DEB589BB90301EE180127EF501F
:401980007260013900F086F800200AE0032008E0082006E0082004E0082002E0082000E0072084F31088F8BDA43D0000CC3D00000089FF1F18B108B5C368984708BD7047E4
:4019C00008B508B1406800E00020052816D80C4B53F8203093B10A4A013B42F82030094B53F82030032B07D10222064B43F820200022054B43F8202000F0E2FB08BD00BF3B
:401A0000B481FF1F6882FF1F9084FF1F18B1034640689B6801E00023184605281DD80F4A52F82020CAB10E4A52F82010032914D010B50C4C54F820201A4344F820200A4AC2
:401A400052F82020134207D0012905D10222044B43F8202000F0B4FB10BD7047EC3D00006882FF1F9084FF1F7884FF1F80B108B50378012B06D013B1032B06D008BDFFF734
:401A80009FFF08BDFFF7C2FF08BDFFF793FF08BD704700BF30B400EB40029300214AD258214B03EBC2035C68B4F1FF3F04D11E4B03EBC20250602DE01C4B03EB04139B6869
:401AC00099420AD2184D05EBC2025060174A02EB04125B1A93601DE01C46144B03EB04139A68891ADB68B3F1FF3F05D00F4A02EB031292689142EFD2B3F1FF3F05D00B4A43
:401B000002EB031295686D1A9560084A02EB0414E0601C46054B03EB00108160C46030BC704700BFA43D00003881FF1F0089FF1F38B5394A02EBC0035C6852F8303001335B
:401B400042F8303000EB40018A0034498A58934203D90022304B43F83020B4F1FF3F59D02F4B03EB04139B68002B4ED1214600E019462B4B03EB0113DB68B3F1FF3F05D0ED
:401B8000274A02EB03129268002AF1D0244A02EB01114FF0FF32CA601F4A02EBC0004360B3F1FF3F07D01E4A02EB03139A68013A9A6000E02C4604EB44029300194A1344DE
:401BC0001B7A7BB904EB44029300164A13445A68154B53F8223003EB83039A0013481044FFF744FF0E4B03EB0413DD68596821B101392046FFF74EFF03E024010022084B52
:401C00001A51B5F1FF3FD5D138BD054A02EB0414013BA36038BD00BF3881FF1FCC3D00000089FF1FA43D0000C43D00007C3D000038B5EFF3108572B6002838D1FFF778FF27
:401C4000204B1B68002B34D11F4B1C6800F096FAB0F1FF3F2FD01D4B53F820201C4B1B689A422AD9B4F1FF3F03D00221194A42F82410194A52F820201343154A136000225D
:401C8000144B43F8202000F035FA144B53F820304BB10024114B43F8204040F0004001F067F920460AE001F063F9002006E0032004E0002002E0002000E0002085F310887D
:401CC00038BD00BFE084FF1F4C82FF1F543E0000B084FF1F6882FF1F1C3E00006084FF1FEFF3108372B6114A1168114A126882B9B1F1FF3F0FD00F4A52F821206AB110B477
:401D00000D4C54F8212022EA000044F82100002007E0022002E0022000E0012083F31088704783F3108810BC704700BF4C82FF1FE084FF1FEC3D00009084FF1F05280FD834
:401D40000B4B53F820306BB10A4B53F82030032B0AD059B1084B53F820300B60002070470320704701207047072070470E207047EC3D00006882FF1F9084FF1F38B5EFF37D
:401D8000108472B6052853D8324B53F82030002B50D0314B53F82030032B4DD02F4D55F820200A4345F820202D4A52F82020114244D0012B44D10222274B43F8202000F0CD
:401DC000FFF9284B1B68002B3CD1274B1D6800F0D5F9B0F1FF3F37D0244B53F82020244B1B689A4232D9B5F1FF3F03D002211A4A42F825101F4A52F8202013431C4A136080
:401E00000022154B43F8202000F074F91A4B53F820304BB10025184B43F8205040F0004001F0A6F8284612E001F0A2F800200EE003200CE001200AE0072008E0002006E0F2
:401E4000002004E0002002E0002000E0002084F3108838BDEC3D00006882FF1F9084FF1F7884FF1FE084FF1F4C82FF1F543E0000B084FF1F1C3E00006084FF1F38B5EFF33E
:401E8000108472B63A4B1D683A4B1B68002B63D1B5F1FF3F62D0384B53F82530B3F1FF3F5ED1364B53F82530002B5BD0344B53F82530034258D1334B43F825000122324B29
:401EC00043F82520314B53F8250031490B6823EA00030B602F4B43F825202F4B53F82520234B1A6000F04AF9B0F1FF3F06D02B4B53F82020264B1B689A420DD81C4B18689D
:401F0000B0F1FF3F03D000221F4B43F8202040F0004001F02DF81AE000211B4A42F820101A4A52F820201343194A136000F0E2F8184B53F8203043B10022164B43F82020A4
:401F400040F0004001F014F801E001F011F800200C4B43F8250008E0022006E0022004E0062002E0012000E0002084F3108838BD4C82FF1FE084FF1F5481FF1FEC3D000095
:401F80009084FF1F7884FF1F6882FF1F1C3E0000B084FF1F6084FF1F5082FF1F543E000008B500F0A7F8084B53F8203043B10022054B43F8202040F00040044B186008BD86
:401FC000024B186008BD00BF6084FF1FE484FF1F10B500F0D3F8124B1B68B0F1FF3F1AD0104A52F82010104A1268914213D9B3F1FF3F03D002240D4941F8234000210B4B3C
:4020000043F820100A4B53F820301A43064B1A60FFF7C6FF10BD43F00043064A136010BD4C82FF1F543E0000B084FF1F6882FF1F1C3E0000E484FF1F034B1B6813B1002220
:40204000014B1A60704700BFD484FF1F204B1A68204B1968EFF3108372B6042829D830B41D4C54F8204044BB51B9B2F1FF3F26D01A4C54F822501A4C54F82040A54220D81D
:4020800009BB184951F82250174C44F8205041F822000121104A42F8201014490C68144A42F820400E4A52F8202022430A6000200AE0032083F310887047012004E001205E
:4020C00002E0012000E0012083F3108830BC70474C82FF1FE084FF1F4C84FF1F543E0000D83D00005481FF1F4081FF1FB084FF1F2089FF1FF0B4184B19880B0A174AD356F6
:40210000B3F1FF3F01D1535601E008335BB2144D55F82320134850F82200134E56F8224045F82340114D2F6846F822702A60B4F1FF3F09D10E4A42F82340012202FA03F39C
:4021400021EA0301044B19800A4B19680A4A42F820101860F0BC7047AC84FF1F703C00000C82FF1FD088FF1F8481FF1FA884FF1FCC81FF1F4C82FF1F5082FF1F0C4B1A8830
:40218000130A0C49CB56B3F1FF3F01D18B5601E008335BB2B3F1FF3F06D0074A52F82320064B53F8220070474FF0FF30704700BFAC84FF1F703C00000C82FF1FD088FF1FC3
:4021C00030B4144B53F82020134C2368134951F823502560124C44F823004FF0FF3441F82340104951F82210A1420AD10E4951F820400E480188214301800D4941F8223088
:4022000002E0064840F82130064941F8223030BC704700BF9C81FF1FA884FF1F8481FF1FD088FF1FCC81FF1F543E0000AC84FF1F0C82FF1F10B150F8210070474FF0FF3045
:40224000704700BF0122014B1A60FEE7DC84FF1F70B50546124B53F8306000241CE0104B03EBC50321465868FFF7E4FF0D4A52F82030013B42F820300B4B53F82030032BED
:4022800007D10222084B43F820200022074B43F82020FFF795FF0134B442E0D370BD00BF703D0000B481FF1F6882FF1F9084FF1F18B908B5FFF7CCFF08BD7047194B1A4A44
:4022C000DA621A4A9A631A4ADA63EFF3108272B6184B1B6813BB10B5044600F0EFF8164B1C600122134B1A602046FFF7E1FFFFF745FFB0F1FF3F0ED0104B53F82030104A0F
:4023000011680B43136000220E4B43F82020FFF7F1FE00F02DFE62B6FFF794FF82F31088072070470080FF1F312F0000F52E000091000000DC84FF1F1C8DFF1F1C3E000090
:40234000B084FF1F6882FF1F08B5EFF3108272B60D4B19680D4B1B6863B90D4B53F82130B3F1FF3F08D14FF0FF300A4B43F82100002002E0022000E0062010B9084600F0DB
:4023800050FE82F3108808BD4C82FF1FE084FF1F5481FF1F6C81FF1F70B53C4B1A683C4B1B68EFF3108572B604285BD8394951F82010002958D0384951F82210884255D123
:4023C00053B9B2F1FF3F53D0344C54F82260344C54F82040A6424DD8002B4DD1314C54F821402D4941F8224000212A4A42F820102D4A52F820102D4A1160002B3ED1234B42
:402400001C68FFF7BBFEB0F1FF3F39D0234B53F82020264B1B689A4234D9B4F1FF3F03D00221234A42F82410224A52F8202013431E4A136000221E4B43F82020FFF75AFE7C
:402440001D4B53F820304BB100241B4B43F8204040F0004000F08CFD204614E000F088FD002010E003200EE005200CE005200AE0012008E0012006E0012004E0002002E028
:40248000002000E0002085F3108870BD4C82FF1FE084FF1F4C84FF1F5481FF1F543E0000D83D00004081FF1F2089FF1FB084FF1F6882FF1F1C3E00006084FF1F10B5EFF3C6
:4024C000108472B600F004FD034A136843F07F43136084F3108810BD20ED00E008B511490120FFF787F907210120FFF797F900220D4B1A7072220D4B1A702022033B1A7035
:402500000B490220FFF776F907210220FFF786F90622084B1A70472210331A70022251331A7008BD39260000B884FF1F8B650040D12600002364004010B500F0C1FC04466C
:402540000D4A137843F020031370033A137843F010031370094A0223136009490B7843F010030B70042307490B60136000F0DCF8204600F0A9FC10BD9B65004000E100E0AC
:402580009464004080E200E008B5054B5B7823B9FFF7A4FF0122024B5A70FFF7CDFF08BDB884FF1F164BD9799B79DBB2994205D25A1E914214BF0022012204E0CA1A632A73
:4025C00014BF00220122002AECD1994207D10D4B1B7813F0040F02D10B4B18707047632900D90021094B58540131054BD971054B1B7813F0020F02D00422054B1A607047FE
:40260000B884FF1F64640040446400400893FF1F00E200E038B5074B5B782BB938BDFFF7C1FF0134A4B201E005460024285D0028F5D138BDB884FF1F1D4B1B78DBB213F00C
:402640001E0F05D01B4803F01E0201780A43027003F0200303F0FF0233B3174B1978C9B2164B1B78DBB21648C154164B1B7813F0FF0F02D00121144B197010490B78013367
:40268000DBB20B700B78DBB2632B02D900210B4B19700A4B1978C9B20C4B1B78DBB2994202D10121074B1970002AC5D1704700BF68650040B884FF1F48650040BB84FF1F2F
:4026C0006C93FF1FBC84FF1FBD84FF1FBA84FF1F13E0104B1B78DBB2632B02D900220D4B1A700C4A1378DBB20B49CB5CDBB20B490B7013780133DBB21370064B1B78DBB244
:40270000074A1278934204D0064B1B7813F0040FDFD07047BE84FF1F0893FF1F44640040BF84FF1F64640040054A137843F0080313701032137843F008031370704700BFAC
:40274000A2430040044A137803F0BF03800100F0400018431070704700510040044A137803F0FE0300F0010018431070704700BF20510040044A137803F07F03C001C0B291
:4027800018431070704700BF00510040024A137843F080031370704779650040014B1880704700BF126A0040014B1880704700BF926A0040014B1880704700BF526A004050
:4027C00008B50E4A137803F0C00343F0090313702032137843F0010313700132137843F0010313704FF6FF70FFF7D8FF4FF6FF70FFF7DAFF0020FFF7DDFF08BD79650040D9
:4028000008B5054B1B7823B9FFF7DAFF0122024B1A70FFF7BBFF08BDC184FF1F024A137843F08003137070477E640040014B1880704700BF1C680040014B1880704700BF1A
:402840009C680040014B1880704700BF5C68004008B50E4A137803F0C00343F0090313702032137843F0010313700132137843F0010313704FF6FF70FFF7D8FF4FF6FF705A
:40288000FFF7DAFF0020FFF7DDFF08BD7E64004008B5054B1B7823B9FFF7DAFF0122024B1A70FFF7BBFF08BDC284FF1F024A137843F08003137070477A640040014B188089
:4028C000704700BF12680040014B1880704700BF92680040014B1880704700BF5268004008B50E4A137803F0C00343F0090313701F32137843F0010313700132137843F021
:40290000010313704FF6FF70FFF7D8FF4FF6FF70FFF7DAFF0020FFF7DDFF08BD7A64004008B5054B1B7823B9FFF7DAFF0122024B1A70FFF7BBFF08BDC384FF1F10B541F61C
:40294000FF734FF480420121022000F061F9084C207041F6FF731A460121042000F076F96070044800F090F9002000F093F910BDC484FF1FA92A000070B52C4C2078FEF75F
:4029800047FE6078FEF744FE294B1B78FF2B03D1FEF7ACFE264B1870254D2878062302460421FEF7BDFE214E341DA4B2224645F6A0312878FEF7C8FE29783078FEF768FE45
:4029C0006B78FF2B02D1FEF791FE6870184D6878072302460421FEF7A3FE164A92B221466878FEF7B1FE114C69786078FEF750FE01212078FEF7F0FD01216078FEF7ECFDCD
:402A000000F05EFA0C4A137843F02003137000F05BFA0A4B1A7842F001021A701A7842F002021A700122064B1A6070BDC484FF1FCC82FF1FD093FF1F976400407765004092
:402A400080E200E008B5074B9B6823B9FFF776FF0122044B9A6000F0C5F8FFF78DFF024B1B7808BDC484FF1F6665004008B500F0C7F808BD044B1B7803F0FF020BB9002817
:402A8000F8D01046704700BF66650040C0F10100034B33F91030034A1088181A00B27047D093FF1FD893FF1F704700BF08B50A280FD00C2802D0082806D102E04FF4805239
:402AC00009E04FF4807206E00020FEF74BFE002201E04FF480620021094B198042F2107303FB02F303F6C413064A82FB0302DB17C3EBE223044A1360044B198008BD00BF20
:402B0000D693FF1FAD8BDB68DC93FF1FD893FF1F10B500F0D5F90446184A137843F0010313701032137843F00103137002F5AA520832137843F0030313701822104B1A70EF
:402B4000013B1A7842F040021A701A7802F0FC021A70C822053B1A700222A3F597530C3B1A70084A137843F0080313700A20FEF711FE204600F0A8F910BD00BFAB430040D5
:402B800006590040275B004010B504460A280DD00C2802D0082804D101E0C22207E0422205E00020FEF7DEFDC22200E08222034B1A702046FFF77AFF10BD00BF025900406A
:402BC00008B5064A137843F0060313700C20FFF7DBFF0022024B1A8008BD00BF01590040D493FF1F08B5054B1B7823B9FFF7E8FF0122024B1A70FFF78BFF08BDD084FF1FCC
:402C0000024A137843F001031370704700590040F0B583B016461F460B4C012525700023019300932B460A4601462846FEF73CFD3A4631462078FEF711FD02212078FEF7D8
:402C4000FBFC207803B0F0BDCE82FF1FF0B583B016461F460B4D00242C700194009423460A4601462046FEF71FFD3A4631462878FEF7F4FC02212878FEF7DEFC287803B045
:402C8000F0BD00BFCF82FF1F014B1B681864704708ED00E04001C0B2014B1870704700BF00E400E008B500F00BF90A4A137843F0200313700432137843F010031370013A73
:402CC000137843F01003137000F0FEF800F0E2F808BD00BF98640040014B1878704700BF6C640040014B1878704700BF6B640040034B1B7813F0040FFAD0024B1870704700
:402D00006C6400404C64004008B501E00A4B1B780A4B1B7813F0200FF8D100F0D1F8084B1A7842F001021A701A7802F0FE021A7000F0CAF808BD00BF5C6400406B6400407A
:402D40009C64004008B50F22064B1A70FFF7DCFFFFF7C2FFFFF7C6FF0023034A1370013A137008BD886400408C64004008B5054B1B7823B9FFF7E6FF0122024B1A70FFF7EE
:402D800091FF08BDD184FF1F044A137803F0F703C00000F00800184310707047C0510040044A137803F0EF03000100F0100018431070704730510040084A137843F00103C4
:402DC00013701032137843F00103137002F64D32137843F001031370704700BFA3430040014B1880704700BF044F0040014B1880704700BF064F0040014B1870704700BF4B
:402E0000034F004008B5194A137843F0020313700232137803F08F0343F010031370144B1A7802F0CF021A701A7842F030021A701A7802F0F0021A701A7842F00F021A7070
:402E40006420FFF7CDFF0020FFF7D0FF0020FFF7D3FF084A137843F00103137002F65E32137843F00103137008BD00BF004F00400B4F0040A343004008B5054B1B7823B98C
:402E8000FFF7C0FF0122024B1A70FFF795FF08BDD284FF1F054A137843F0010313701032137843F001031370704700BFA24300400230800803D000BF01380046FCD170479B
:402EC000EFF3108072B6704780F31088704700BF18484FF47F0102680A43026016486FF07F4102680A400260704714484FF080510160704772B611484FF000610160FFF77E
:402F000067F80F48006800F0F3F858B10C4800684FF080730B4A0C490FB40FB46FF00600004700BF6FF0060062B6004762B600DF08B0704720ED00E01CED00E004ED00E035
:402F4000E484FF1F712F00002D2F0000EFF30880054908600548006880F3088870470248006880F308887047D082FF1FB882FF1F411C8900154A11440968154A136899424C
:402F80001AD0F0B444464D4656465F46F0B400B5104C9B002344EFF308851D60116089002144096881F3088802BC8E46F0BCA046A946B246BB46F0BC002806DB00B500F048
:402FC0008BF802BC8E46FFF7D3BF70479C3E0000B484FF1FBC82FF1FF0B444464D4656465F46F0B400B5EFF3038308B48000174901440968164A0244EFF308831360884787
:403000001448804704BC4FF08070024382F3038801BC8646F0BCA046A946B246BB46F0BC704780000A4901440A6882F3088804BC4FF08070024382F3038808BC9E46F0BCBC
:40304000A046A946B246BB46F0BC70476C3E0000E888FF1F5930000010B572B6034B1C68204600F00DF82046FFF7DBFF4C82FF1F08B5024B1868FFF7AFFF08BD4C82FF1F43
:4030800010B4104B53F820304FF0FF310BE00E4A52F823200B4941F8202000240B4941F8234019461346B3F1FF3FF0D1B1F1FF3F04D0074B53F82120064B1A60084610BC64
:4030C000704700BF5481FF1F4081FF1F4C84FF1F2089FF1FB084FF1F08B562B6FFF7C8FF72B600F041F8014B186808BDE484FF1F00280BDA20F000400130054B53F820003E
:40310000044B1B68181A18BF01207047012070479C3E0000B484FF1F054B53F82020054B53F820309A4201D10120704700207047B481FF1F043E000008B5FEF7DBFF084B3D
:4031400053F8203043B10022054B43F8202040F00040044B186008BD024B186008BD00BF6084FF1FE484FF1F38B5364B1C680022354B1A60354A52F82430013342F8243019
:40318000334B53F824502046FFF7C6FF012801D0A54204D103222F4B43F8242003E002222C4B43F824202C4B53F824102B4A136823EA010313602A4B53F82440214B1C606A
:4031C000B5F1FF3F0FD0234B53F82530032B07D10222204B43F825200022224B43F825202846FEF7EDFFFEF7C9FFB0F1FF3F0BD1B4F1FF3F03D00022164B43F8242044F027
:403200000044194B1C6038BD184B53F82020134B1B689A4208D800220E4B43F8242044F00044114B1C6038BD00210A4A42F82010094A52F820201343084A1360FFF77CFF63
:4032400038BD00BF4C82FF1FD484FF1FB481FF1F6C81FF1F6882FF1F1C3E0000B084FF1F5082FF1F9084FF1FE484FF1F543E0000014B1868704700BF3483FF1F0E4B70B557
:403280001E460E4C0025E41AA410A54204D056F8253098470135F8E700F07CFE084B094C1E46E41AA4100025A54204D056F8253098470135F8E770BDA03F0000A03F00009D
:4032C000A03F0000A83F000010B5431E0A44914204D011F8014B03F8014FF8E710BD03460244934202D003F8011BFAE770470000000000000A537974656D204F6E6C696E80
:40330000650A00005265626F6F746564206166746572207761746368646F672072657365740A00005265626F6F746564206166746572207761746368646F67207265736554
:40334000740000005265626F6F74656420616674657220706F776572206F6E2072657365740A00005265626F6F74656420616674657220706F776572206F6E20726573655D
:4033800074000000450200000100000001000000416363656C657261746F722056616C75653A2000110400000A000000C1020000640000004D0300000200000001000200D9
:4033C0005105000001000000010000008106000005000000010000000FB103053C3CB203053C3CB306053C3C053C3CB40103C003280804C101C0C2020D00C3028D2AC4027F
:403400008DEEC5011A3601C0E0100422070A2E30252A28262E3A00010313E10F16060D2D26232727252D3B000104133A0105290000000000003E5B4F5B3E3E6B4F6B3E1C70
:403440003E7C3E1C183C7E3C181C577D571C1C5E7F5E1C00183C1800FFE7C3E7FF0018241800FFE7DBE7FF30483A060E2629792926407F050507407F05253F5A3CE73C5A5E
:403480007F3E1C1C08081C1C3E7F14227F22145F5F005F5F06097F017F006689956A606060606094A2FFA29408047E040810207E201008082A1C08081C2A08081E101010E6
:4034C000100C1E0C1E0C30383E3830060E3E0E06000000000000005F00000007000700147F147F14242A7F2A12231308646236495620500008070300001C224100004122FB
:403500001C002A1C7F1C2A08083E080800807030000808080808000060600020100804023E5149453E00427F400072494949462141494D331814127F1027454545393C4A24
:4035400049493141211109073649494936464949291E0000140000004034000000081422411414141414004122140802015909063E415D594E7C1211127C7F494949363ECC
:40358000414141227F4141413E7F494949417F090909013E414151737F0808087F00417F41002040413F017F081422417F404040407F021C027F7F0408107F3E4141413E00
:4035C0007F090909063E4151215E7F09192946264949493203017F01033F4040403F1F2040201F3F4038403F631408146303047804036159494D43007F4141410204081071
:4036000020004141417F04020102044040404040000307080020545478407F284444383844444428384444287F385454541800087E090218A4A49C787F0804047800447D36
:4036400040002040403D007F1028440000417F40007C047804787C080404783844444438FC1824241818242418FC7C08040408485454542404043F44243C4040207C1C2057
:4036800040201C3C4030403C44281028444C9090907C4464544C4400083641000000770000004136080002010204023C2623263C1EA1A161123A4040207A3854545559213D
:4036C000555579412254547842215554784020545579400C1E5272123955555559395454545939555454580000457C410002457D420001457C407D1211127DF0282528F0A3
:403700007C545545002054547C547C0A097F4932494949323A4444443A324A4848303A4141217A3A42402078009DA0A07D3D4242423D3D4040403D3C24FF2424487E4943FD
:40374000662B2FFC2F2BFF0929F620C0887E090320545479410000447D413048484A32384040227A007A0A0A727D0D19317D2629292F28262929292630484D4020380808B2
:40378000080808080808382F10C8ACBA2F102834FA00007B000008142A142222142A14085500550055AA55AA55AAFF55FF55FF000000FF00101010FF00141414FF00101055
:4037C000FF00FF1010F010F0141414FC001414F700FF0000FF00FF1414F404FC141417101F10101F101F1414141F00101010F0000000001F101010101F10101010F0100036
:403800000000FF101010101010101010FF10000000FF140000FF00FF00001F10170000FC04F414141710171414F404F40000FF00F714141414141414F700F714141417144E
:4038400010101F101F141414F4141010F010F000001F101F0000001F14000000FC140000F010F01010FF10FF141414FF141010101F00000000F010FFFFFFFFFFF0F0F0F07E
:40388000F0FFFFFF0000000000FFFF0F0F0F0F0F3844443844FC4A4A4A347E02020606027E027E0263554941633844443C04407E201E2006027E020299A5E7A5991C2A49BB
:4038C0002A1C4C7201724C304A4D4D303048784830BC625A463D3E494949007E0101017E2A2A2A2A2A44445F444440514A444040444A51400000FF0103E080FF00000808D5
:403900006B6B083612362436060F090F06000018180000001010003040FF0101001F01011E00191D1712003C3C3C3C000000000054465400427566666572206F76657266C5
:403940006C6F77000A00000055415254207374617274656400000000203A200000000100010001000100010001000100010002000200020002000200020002000200020004
:40398000020002000200030003000300030003000300030004000400040004000400040005000500050005000500060006000600060007000700070008000800080009006D
:4039C00009000A000A000A000B000B000C000C000D000D000E000F000F00100011001100120013001400150016001700180019001A001B001C001D001F002000210023005D
:403A000024002600280029002B002D002F0031003400360038003B003D0040004300460049004C004F00530057005B005F00630067006C00700075007B00800086008C00E0
:403A4000920098009F00A600AD00B500BD00C500CE00D700E100EB00F50000010B011701240130013E014C015B016A017A018B019C01AF01C201D601EA01000217022E029B
:403A8000470261027C029802B502D402F402160339035D038303AB03D50300042D045D048E04C204F80430056B05A805E8052B067106BA0606075607A90700085B08B90827
:403AC0001C098309EF09600AD50A500BD10B560CE20C740D0D0EAC0E520F0010B510731138120713DF13C014AB15A116A117AD18C419E91A1A1C581DA51E00206B21E5221E
:403B000071240E26BD278029562B412D422F5A318933D1353338B03A493D0040D542CB45E2481C4C7A4FFF52AC56825A845EB3621267A26B66706075927A0080AA85958BB3
:403B4000C3913798F59EFEA558AD04B508BD66C524CE44D7CCE0C0EA25F5FFFF0000000085110000000000000000000000000000000000000000000000000000010000002C
:403B80000200000000000000311100000000000000000000000000000000000000000000000000000100000004000000000000004D1100000000000000000000000000005E
:403BC00000000000000000000000000001000000030000000000000000000000020000000000000001000000FC3B0000000000000000000001000000000000000200000084
:403C00005D11000000000000010000000000000002000000283C00000000000000000000010000000100000003000000040000003A200000004F00400C00405100403000B0
:403C4000F0510040100000000140001000140140000800400140000A004C0140000200500140200060520040140D004806000000FF000101020202020303030303030303B8
:403C800004040404040404040404040404040404050505050505050505050505050505050505050505050505050505050505050506060606060606060606060606060606C4
:403CC0000606060606060606060606060606060606060606060606060606060606060606060606060606060606060606060606060707070707070707070707070707070734
:403D000007070707070707070707070707070707070707070707070707070707070707070707070707070707070707070707070707070707070707070707070707070707C3
:403D400007070707070707070707070707070707070707070707070707070707070707070707070707070707070707070707070701000000783D000000000000010000003C
:403D8000020000000400000000000000FFFFFFFF00000000050000000000000000000000FFFFFFFF00000000000000000000000000000000010000000000000000000000FF
:403DC0000100000000000000010000001027000001000000000000000000000000000000000000000000000000000000000000000000000001000000010000000100000086
:403E000000000000010000000100000001000000010000000100000001000000800000000200000020000000100000000400000008000000010000000200000004000000B7
:403E4000000000000100000002000000030000000400000001000000020000002000000010000000040000000800000051010000F901000009060000E5030000550600005B
:403E8000E906000071300000713000007130000071300000713000007130000000000000000000000000000001000000020000000300000000000000616C726D5F31305F7C
:403EC0006D730000616C726D5F315F6D7300000065765F6A6F79737469636B5F6F6E44617461000065765F73706565645F6F6E446174610065765F7469636B5F31306D7381
:403F0000000000007265735F73706565640000007265735F6A6F79737469636B000000007265735F6C6F6767696E67007265735F656E67696E6500007265735F6272616BB6
:403F4000656C69676874000074736B5F696E69740000000074736B5F6261636B67726F756E64000074736B5F696F000074736B5F636F6E74726F6C0074736B5F6C6F6767F9
:403F8000696E670074736B5F73797374656D000043000000F8B500BFF8BC08BC9E4670474D00000039150000F8B500BFF8BC08BC9E46704729000000C83F0000C880FF1FFB
:403FC00070020000A8100000000000000000000000000000003C00000000000000000000D43B00000000000000000000AC3B00000000000000000000843B000090330000E3
:40400000000000000000000000000000000000005C3B0000010000007F800000030000000000E02EC05D00001800000000366E01B83E0000C43E000000000000FFFFFFFF0A
:40404000FFFFFFFFFFFFFFFFFFFFFFFFFFFFFFFFFFFFFFFFFFFFFFFFFFFFFFFFFFFFFFFFFFFFFFFFFFFFFFFFFFFFFFFFFFFFFFFFFFFFFFFFFFFFFFFFFFFFFFFFFFFFFFFF80
:40408000FFFFFFFF0100000002000000030000000400000005000000FFFFFFFF000000000100000005000000040000000200000003000000010000000100000001000000E7
:4040C000010000000100000001000000FFFFFFFFFFFFFFFFFFFFFFFFFFFFFFFFFFFFFFFFFFFFFFFFFFFFFFFFFFFFFFFFFFFFFFFFFFFFFFFFFFFFFFFFFFFFFFFFFFFFFFFFF1
:40410000FFFFFFFFFFFFFFFFFFFFFFFFFFFFFFFFFFFFFFFFFFFFFFFFFFFFFFFFFFFFFFFFFFFFFFFFFFFFFFFFFFFFFFFFFFFFFFFFFFFFFFFFFFFFFFFFFFFFFFFFFFFFFFFFBF
:40414000FFFFFFFFFFFFFFFFFFFFFFFFFFFFFFFFFFFFFFFFFFFFFFFFFFFFFFFFFFFFFFFFFFFFFFFFFFFFFFFF03000000030000000300000003000000030000000300000055
:40418000D03E0000E43E0000F43E0000043F0000103F0000203F00002C3F0000383F0000483F0000543F0000643F00006C3F0000783F0000843F00000893FF1F000000002F
:4041C000A888FF1FE090FF1FF48CFF1FFFFFFFFF000000000000000000000000000000000000000000000000000000000000000000000000903F000000000000000000007A
:4042000000000000000000000000000000000000000000000000000000000000000000000000000000000000000000000000000000000000D482FF1F00000000000000000A
:40424000000000000000000000000000000000000000000000000000000000000000000000000000000000000000000000000000000000000000000000000000000000003E
:4042800000000000000000000000000000000000000000000000000000000000000000000000000000000000000000000000000000000000000000000000000000000000FE
:4042C00000000000000000000000000000000000000000000000000000000000000000000000000000000000000000000000000000000000000000000000000000000000BE
:40430000000000000000000000000000000000000000000000000000000000000000000000000000000000000000000000000000000000000000000000000000000000007D
:020000040003F7
:0200000480007A
:40000000024F004004520040015B00400364004002650040110001402901014030020140460301403D0401404F05014018060140480701404408014045090140410A014047
:40004000440B0140430C01404A0D0140510E0140310F0140151401403915014039160140441701404F1801403C1901404C1A0140511B01400C400140174101400A4201403D
:4000800006430140074401400945014008460140054701400C48014005490140034C0140094D01400C5001400351014001400A3600020102103011102784840F8701880FBE
:4000C00088388B7206013001580459045C225F018C0190019401A001B601B880BE40D804D904DC22DF01004001240528073208180A420C410D200F20132014921510184066
:400100001B011D4028182B412D282E2032013310341236043A203D803E403F82800881208244844889608F20C0E7C2FFC4F2CA6FCCE5CE94E280E6041203140318031C033C
:400140002003240126022C0330023601580459045C225F018401850289038A019A019F01A201A503A801B001B503B920BE01BF10C002C704C9FFCA07CBFFCC40CD20CEF017
:40018000CF05D008D804D904DA04DC22DD03DF01E040E1A8E240E320004001080248084A09080B040C100D080E100F821080111012011308144217081A401F4120042848E9
:4001C00029082A402B112C402D202E10308031903318340235103680386039103A013B043C403F02400448805008620163807A807B4087428F019504960298409C939D207F
:400200009F12A240A301A740AB10AE40B010B150B301B402C00FC2FFC4BFCAAFCCBECE9FD004E24002030414051009210B060C100EAC100912D01708180C190C1A711B23E4
:400240001E201F0C24DC25212622270E28102A402D402F03331034E0350F361F376039803A203B203F0440314102450E46B0470C481949FF4AFF4BFF4EF04F44500C5401CB
:400280005604580459045A045B045C335D335F0166C06A406B02D804D904DC22DF010221038005140608070809800A840C140D080F8210081304144018041A061B90216077
:4002C0002244230428022B102C042D013008312032403440350438203B083C403E083F0240064180422048104B08522C5A495B20620279017B40814086028E048F209240C3
:4003000094609504970498409C119D109F08A008A180A240A301A508A608A758AC02AE01AF08B080C06DC2FBC416CAAACC5ECED6D00ED60FD801E001E820EA085608580498
:4003400059045B045C225D905F019501A101AA01AE02B201B402B501B920BF10D602D736D804D904DB0CDC22DD20DF010040050409800A280B800C100F82111213881484AA
:400380001508170819041A281B08200428142A012B012C042D012F403180321033043480350439093C403D023F0A5B045E8060046701680269146BC0720A79408201880142
:4003C00091019202944095049B089C159D14A240A301A748A810AA21AC10AE01B004B180B304B404C021C2DFC47FCAAFCC5ECED3D612D814DE08E204E420EA040024014AA4
:40040000040E054806110702081009020B480C100E201014110212281420151816101760183919111A021B681C301D481F022030214A2503273428102A202D7C2F03300750
:40044000330F343835703A023B285602572C580459045B045F01C030C102C9FFCAFFCBFFCDA0CF04D018D804D904DA04DC22DD01DF01E040E2C0E440E540E6C0E8C0EAC0AB
:40048000ECC0EEC00008014105020729082C0A020D220E211220130417121D231E401F10250426042728282029202E412F103004322135023640372839413D103E064010B5
:4004C000411067806C146D106EA56F11760277029010916192029380942895109601972499029D219E029F19A526A654A804AA40B010B105B204B620C0FDC2F7C454CAD61B
:40050000CCF7CEE9D006D880E204E820ECE00A020E021201300232014030410245104620480A49FF4AFF4BFF4DAF4E0F4F0450185280580459045A045B045C215D115F0183
:40054000604062C06440654066C068C06AC06CC06EC082088403860C88108C109205930194109501980A9A049C10A210A403A604A701AA10AC03AE04B00FB101B210BA02C1
:40058000BE04BF01D440D804D904DB04DC23DF010090042406820B400D010E25140815801628170118101A801D041E40244028802B042D402F10301032013490352136046C
:4005C00039493C203D813F0C4010411048405110650466106702734082C08C088D408F019141920293809468951896019724988099029A189D219E029F18A140A526A644D8
:40060000A840AB20C0F3C2F8C4F0CA55CCF5CEFBD006D870E411EA08009401040269050A071009010C200ED011561309140E1504185519041AAA1D0421042433250726C43B
:4006400027382B042D603102320F357F36F0380839203A803F0140344102421045CE46F047BD483B49FF4AFF4BFF4C224EF04F0850045409580459045A045B045F0162C01E
:40068000644065016610671168C069016B116C406D016E406F01D804D904DC22DF01000401200541082009400A020B060E1810401140131014101D401E101F40251128E036
:4006C00029202B042C102D102E012F12350136403718380439EA3B123D283E0245A646804C404D06561857025C405D045E025F2064027C027D0291A39428951096019720D4
:4007000098809C209E829F10A180A201A514A640A704B111B301B480B510B608C096C263C42BCAF7CCF0CEEFD0F0D6F0D810E830EC2006021E022E01320234014020410341
:4007400049FF4AFF4BFF4DA04F0450185280580459045A045B045C215D115F01604062C06440654066C068C06AC06CC06EC0810D8401850287348801890D8C01910292015F
:40078000930D9720990D9C019D0DA10DA511A702AD02AF38B530B601B70FBB80BE40C060C103C510C620C80AC9FFCAFFCBFFCDAFCE0FCF04D018D804D904DA04DC02DD0184
:4007C000DF01E040E2C0E440E540E6C0E8C0EAC0ECC0EEC00004042A06020B010E910F081002142215011608170118141B101D801E02270A28A02B042E812F103640371A3B
:40080000380239A63D183E024004422046204F215620700283048708880289048C108D408E10C0F4C2F1C4F1CAD7CCF0CEEFD046D220E028E410050109010D0111011C01EB
:4008400023022E0232023501360137023E403F10580459045C225F01D804D904DC22DF01018803800601071208110A220F8810061484158019481B04200821402810298019
:400880002A022B042C102F8030043102339034053712382039043A413F88801083028404854089048A4092229580989599809A029B10A002A102A3C0A704AD20AE40B18021
:4008C000B204C0ADC25FC4D3CACFCCEFCE5FE204E40B0302160117012501330336015401580459045B0C5C925D205F018102821085088604880189208B108C088F029020F2
:40090000918093409410970499109A409B209C049D04A301A501A620A940AA03AB80AE08AF08B202B401B5FFB67CB880B980BB02BE40BF50D203D302D80CD904DB04DC32F5
:40094000DD20DF0100400108034806800710088509A00FA8110412091484158019A01B681D801F80212223022608280129182A882B952F2030063214335036083840399464
:400980003A033B403F015E8069406B0479407D408410874089028B028E109114922A9301944095409A0A9B409C949D109F04A002A301A580A744C03FC27FC4D7CA4FCC4FC0
:4009C000CE8FD610DE18E001E220E6080080089F0C0A0E510F011401162618141A49249F2701308031013207341836603E403F01402441034205440146CE480C49FF4AFF8E
:400A00004BFF4C624DA04EF04F41500C54185604580459045A045B045C235D335F016640670269106A306B106D106E106F1282028A02AE01B201B402C030C104C9FFCAFF75
:400A4000CBFFCDA0CF04D018D280D804D904DA04DB04DC21DD11DF01E040E2C0E440E540E6C0E8C0EAC0ECC0EEC00010010204A20E241002170418101A101B101D831E241D
:400A80002740282029202D402F2832A33420368239413C083D013E403F404010410145A246304F405440572059405B405E01654066026708700286028A108C088E80914100
:400AC00092029C289D20A404A620C0DAC260C421CA76CCBDCED9D0F3D210D680D8B0E041E4204030410545104720482249FF4AFF4BFF4DAF4E0F4F04501858045A045C02D7
:400B00005D015F01604062C06440654066C068C06AC06CC06EC0810482F38380840C850888048B048C1C8EE38F209041911C934294C3951C9741988299189CF39E0C9F2027
:400B4000A110A4FFA547A718A80FA95FAAF0AC08AF03B01CB140B22CB380B40FB520B6C0B71FB902BA28BB80BF10D602D710D804D904DB04DC33DD30DF01000801010202FD
:400B800005010680071A082A0C800D020E241140140416221C201D241E411F20241827422EA22F2034043504375238083B083C903E083F01421048024902500251015F4010
:400BC0006C116F04760A77188082812082208308874088108B028C408D028F019141921494A2950296419708982899019A209D029F04A044A212A520A620A708B024B120C7
:400C0000B710C0FDC2FEC4E1CAF0CCF0CEF0D002D208D610E220E408E680E8A012201680318033013408361039483E808808C430CCF0CE700140041008020F4051205602C6
:400C4000852087408E02941095489F01A580A610A810AE20C0C0C230D420D620E210E440ECC0530887019F01A580A610AD04B002D420E240EA101B088B01A580A610A708CE
:400C8000C61073807F0287028D20DC01DE04E00852205E0265209920B780D404D601D801EC081B0224208220A621A702AF02C608C801478080109020A601D0042720641052
:400CC0008320861088109F01A580A610C880D880E080E61003019F01AD80C040EE4083809F80A6011020750885088C20B601C408DE04E608E808000F0101080C0A0C0B017A
:400D00000C0F0E07100E11011A0C1B011C0E00FF0103100A90840000400000003CC0C00000030300800040BCBC00B40000000000000B0B0000000000003939003800000008
:400D40000418180008000000000100000000000000000000000000000000000000000000000000000000000000000000000000000000000000000000000000000000000036
:400D80000000000000000000000000000000000000000000000000000000000000000000000000000000000000000000000000000000000000000000000000000000000033
:400DC00000000000000000000000000000000000000000000000000000000000000000000000000000000000000000000000000000000000000000000000000000000000F3
:400E000000000000000000000000000000000000000000000000000000000000000000000000000000000000000000000000000000000000000000000000000000000000B2
:400E40000000000000000000000000000000000000000000000000000000000000000000000000000000000000000000000000000000000000000000000000000000000072
:0200000490006A
:0400000000004005B7
:0200000490105A
:04000000BC90ACAF55
:0200000490303A
:0200000055C6E3
:0200000490402A
:4000000000000000000000000000000000000000000000000000000000000000000000000000000000000000000000000000000000000000000000000000000000000000C0
:400040000000000000000000000000000000000000000000000000000000000000000000000000000000000000000000000000000000000000000000000000000000000080
:400080000000000000000000000000000000000000000000000000000000000000000000000000000000000000000000000000000000000000000000000000000000000040
:4000C0000000000000000000000000000000000000000000000000000000000000000000000000000000000000000000000000000000000000000000000000000000000000
:0200000490501A
:0C00000000012E16106900012E31662F41
:00000001FF