:400000000080002011000000C9050000C905000008B5044B1A6803F53F5302331A6000F0DBFA00BFFA46004010B5054C237833B9044B13B10448AFF300800123237010BD06
:40004000A082FF1F00000000D0170000084B10B51BB108490848AFF300800848036803B910BD074B002BFBD0BDE81040184700BF00000000A482FF1FD0170000C880FF1F82
:400080000000000008B5002000F020FD08BD00BF684620F007018D4619B572B6EFF311841E4B1B68DBB20F2B10D9103B23F0030202F1604202F564421168DB0003F0180339
:4000C000E0229A400A4022FA03F306E00F2B03D1134B1B681B0E00E0002383F31188114A136801331360012B01D101F0CFF962B6FFF7C8FF72B684F3118800F0E1FE094A55
:400100001368013B13601BB901F0C9F901F08DF962B6BDE819408546704700BF04ED00E020ED00E02483FF1F08B562B645F6BF52054B1A60054A136843F00203136000203D
:4001400000F0ACFFFBE700BF14E000E010E000E008B501F06DF8114801F0B0F801F002F80F4A136843F00503136001221146104600F02EFB01221146002000F029FB042072
:4001800000F0B2FA032000F0AFFA022000F0ACFA012000F0A9FA00F0C7FF08BDD417000010E000E000BFFDE738B54FF00001124B93F90030002B00DD5900104B9A68197015
:4001C00000215960022159705569936873B13DB90CE0996855F8240000F01EFD013400E00024064B9B681A699442F2D3034B187801F02CF838BD00BFCC80FF1FD880FF1FCB
:4002000008B5024801F05AF808BD00BFE417000008B5024801F052F808BD00BF0C18000000B583B000230193012000F075FD01A9032000F0D1FC019800F0A0FC019A01217D
:40024000014800F08FF8EFE73018000000B583B00023019301A9022000F0BEFC019800F08DFC019A0121024800F07CF8F2E700BF3C18000030B583B0224B9B681A68002AEE
:4002800039D0204A127802A800F8042D1B689847D8B99DF804101B4B9A6819700021596002215970556993682BB33DB923E0996855F8240000F0B0FC013400E00024114BE8
:4002C0009B681A699442F2D315E00E4B03225A709B68DD69DB6873B13DB90CE0D96855F8240000F099FC013400E00024054B9B689A699442F2D3034B187800F0A7FF03B086
:4003000030BD00BFCC80FF1F10B5084C22680121074800F00FF823680133236013F5807F01D90022226000F0FFFE10BDBC82FF1F50180000F8B506460F46154600240DE09D
:4003400006EBC4039A88B5FBF2F302FB13531BB956F83430002098470134A4B2BC42EFD30020F8BDF8B505460E461746002409E005EBC4035868384202D055F834309847FD
:400380000134A4B2B442F3D30020F8BD00207047002070472123037000207047FEE700BFF0B40022174611E050F82760F3B226F0FF0608E001EB420511F812406D78A55549
:4003C0000132013BDBB2002BF4D101370F2FEBD9F0BC7047064B1B78DBB203F00701054A11701B09013213704422034B1A707047CF0100496E5800407658004008B50A462F
:40040000002101F0DCF908BD38B53322244B1A80182202331A70022203F27E231A7008224FF040231A70032103F5007319701D4B1B78DBB21C490B701C4B1A8041F251220B
:40044000023B1A80002419250CE0194B1B7803F0010343EA440404F003044FF4F07000F0C7FF013D0DB1032CEFD115B90320FFF795FF104B4FF480721A8007221A7000223B
:400480000D490A704820023108701A700222033B1A700A4A137843F00103137038BD00BF8040004008010049A146004022420040254200400440004006400040A2430040A3
:4004C00008B501F071F908BD38B572B6314A137843F00403137000240CE02F4D630019194A0011462A44084691882858FFF786FF0134E4B2082CF0D900240CE02648A200CD
:4005000011194B000344B3F84020D96B986BFFF7D7FF0134E4B2012CF0D920494FF09040FFF73EFF1E4A137843F0020313701032137843F0020313701A4C237843F04003C8
:400540002370A2F58632513A137843F0100313700A2215491548FFF7B3FF082214491548FFF7AEFF144A137843F008031370134D61232B70FFF748FF81232B700122104B81
:400580001A70FFF727FF0E2221460E48FFF798FF38BD00BFE8460040041900004000004803500140A043004014030048C051004020030048125100402243004000480040B2
:4005C00004000840B043004008B501F0C1F803680C2B00D1FEE7FEE708B5104E104D16E029686B68AC68002204E051F8040B43F8040B0432A242F8D1E868002203E00021F1
:4006000043F8041B04328242F9D11035013E002EE6D101F0A3F8FFF787FDFEE701000000F81B000008B5104A104B1A60104A136843F40073136000230AE0032B03D80D4AE9
:4006400052F8231000E00C490C4A42F8231001332F2BF2D90A4B1A780A4B1A70074A0A4B1A60FFF731FF08BD0004FA050CED00E014ED00E000000000C90500000080FF1FB2
:40068000BC760040C080FF1F08ED00E001BE704770B504460E46074B1D681F2802D90020FFF7F4FF04F01F04103455F8240045F8246070BD08ED00E038B504460D46072911
:4006C00002D90020FFF7E2FF1F2C02D90020FFF7DDFF04F01F0000F1604000F564406D01EDB2057038BD00BF38B5EFF3108572B604284ED82D4B53F82030002B4BD02B4AF1
:40070000013B42F820302A4B53F82030032B07D10222274B43F820200022264B43F8202000F03EFC244B1B68002B36D1234B1C6800F014FCB0F1FF3F31D0214B53F82020A7
:40074000204B1B689A422CD9B4F1FF3F03D00221174A42F824101C4A52F820201343194A13600022124B43F8202000F0B3FB174B53F820304BB10024144B43F8204040F007
:40078000004000F095FE20460CE000F091FE002008E0032006E0042004E0002002E0002000E0002085F3108838BD00BF4881FF1FF481FF1FE882FF1F2483FF1FDC81FF1F64
:4007C000FC1A00000483FF1FE01A0000C082FF1FF8B5EFF3108472B6012825D800EB4005AB00184DEB5803EB4306B500164E75598D421BD34AB103EB43039E00124B1E4489
:40080000B3689A4214D3954214D3A9B103010F4DEB589BB90301EE180127EF507260013900F086F800200AE0032008E0082006E0082004E0082002E0082000E0072084F301
:400840001088F8BD841A0000AC1A00003C87FF1F18B108B5C368984708BD704708B508B1406800E00020042816D80C4B53F8203093B10A4A013B42F82030094B53F8203063
:40088000032B07D10222064B43F820200022054B43F8202000F084FB08BD00BF4881FF1FF481FF1FE882FF1F18B1034640689B6801E00023184604281DD80F4A52F820203D
:4008C000CAB10E4A52F82010032914D010B50C4C54F820201A4344F820200A4A52F82020134207D0012905D10222044B43F8202000F056FB10BD7047B81A0000F481FF1FF7
:40090000E882FF1FD482FF1F80B108B50378012B06D013B1032B06D008BDFFF79FFF08BDFFF7C2FF08BDFFF793FF08BD704700BF30B400EB40029300214AD258214B03EB98
:40094000C2035C68B4F1FF3F04D11E4B03EBC20250602DE01C4B03EB04139B6899420AD2184D05EBC2025060174A02EB04125B1A93601DE01C46144B03EB04139A68891A3B
:40098000DB68B3F1FF3F05D00F4A02EB031292689142EFD2B3F1FF3F05D00B4A02EB031295686D1A9560084A02EB0414E0601C46054B03EB00108160C46030BC704700BF1F
:4009C000841A00000481FF1F3C87FF1F38B5394A02EBC0035C6852F83030013342F8303000EB40018A0034498A58934203D90022304B43F83020B4F1FF3F59D02F4B03EB17
:400A000004139B68002B4ED1214600E019462B4B03EB0113DB68B3F1FF3F05D0274A02EB03129268002AF1D0244A02EB01114FF0FF32CA601F4A02EBC0004360B3F1FF3F40
:400A400007D01E4A02EB03139A68013A9A6000E02C4604EB44029300194A13441B7A7BB904EB44029300164A13445A68154B53F8223003EB83039A0013481044FFF744FF2C
:400A80000E4B03EB0413DD68596821B101392046FFF74EFF03E024010022084B1A51B5F1FF3FD5D138BD054A02EB0414013BA36038BD00BF0481FF1FAC1A00003C87FF1F25
:400AC000841A0000A41A00005C1A000038B5EFF3108572B6002838D1FFF778FF204B1B68002B34D11F4B1C6800F038FAB0F1FF3F2FD01D4B53F820201C4B1B689A422AD932
:400B0000B4F1FF3F03D00221194A42F82410194A52F820201343154A13600022144B43F8202000F0D7F9144B53F820304BB10024114B43F8204040F0004000F0B9FC2046AE
:400B40000AE000F0B5FC002006E0032004E0002002E0002000E0002085F3108838BD00BF2483FF1FDC81FF1FFC1A00000483FF1FF481FF1FE01A0000C082FF1FEFF310839A
:400B800072B6114A1168114A126882B9B1F1FF3F0FD00F4A52F821206AB110B40D4C54F8212022EA000044F82100002007E0022002E0022000E0012083F31088704783F3EF
:400BC000108810BC704700BFDC81FF1F2483FF1FB81A0000E882FF1F04280FD80B4B53F820306BB10A4B53F82030032B0AD059B1084B53F820300B60002070470320704755
:400C000001207047072070470E207047B81A0000F481FF1FE882FF1F38B5EFF3108472B6042853D8324B53F82030002B50D0314B53F82030032B4DD02F4D55F820200A432F
:400C400045F820202D4A52F82020114244D0012B44D10222274B43F8202000F0A1F9284B1B68002B3CD1274B1D6800F077F9B0F1FF3F37D0244B53F82020244B1B689A4280
:400C800032D9B5F1FF3F03D002211A4A42F825101F4A52F8202013431C4A13600022154B43F8202000F016F91A4B53F820304BB10025184B43F8205040F0004000F0F8FBDC
:400CC000284612E000F0F4FB00200EE003200CE001200AE0072008E0002006E0002004E0002002E0002000E0002084F3108838BDB81A0000F481FF1FE882FF1FD482FF1FED
:400D00002483FF1FDC81FF1FFC1A00000483FF1FE01A0000C082FF1F38B5EFF3108472B6364B1D68364B1B68002B5DD1B5F1FF3F5CD0344B53F82530002B59D0324B53F825
:400D40002530034256D1314B43F825000122304B43F825202F4B53F825002F490B6823EA00030B602D4B43F825202D4B53F82520224B1A6000F0F2F8B0F1FF3F06D0294B7E
:400D800053F82020244B1B689A420DD81B4B1868B0F1FF3F03D000221D4B43F8202040F0004000F085FB1AE00021194A42F82010184A52F820201343174A136000F08AF808
:400DC000164B53F8203043B10022144B43F8202040F0004000F06CFB01E000F069FB00200A4B43F8250006E0022004E0022002E0012000E0002084F3108838BDDC81FF1FA6
:400E00002483FF1FB81A0000E882FF1FD482FF1FF481FF1FE01A00000483FF1FC082FF1FE081FF1FFC1A000008B500F053F8084B53F8203043B10022054B43F8202040F001
:400E40000040044B186008BD024B186008BD00BFC082FF1F2883FF1F10B500F07FF8124B1B68B0F1FF3F1AD0104A52F82010104A1268914213D9B3F1FF3F03D002240D49C7
:400E800041F8234000210B4B43F820100A4B53F820301A43064B1A60FFF7C6FF10BD43F00043064A136010BDDC81FF1FFC1A00000483FF1FF481FF1FE01A00002883FF1F82
:400EC000034B1B6813B10022014B1A60704700BF1883FF1FF0B4184B19880B0A174AD356B3F1FF3F01D1535601E008335BB2144D55F82320134850F82200134E56F82240B2
:400F000045F82340114D2F6846F822702A60B4F1FF3F09D10E4A42F82340012202FA03F321EA0301044B19800A4B19680A4A42F820101860F0BC70470083FF1F501900008B
:400F40009C81FF1F1487FF1F2081FF1FFC82FF1F5C81FF1FDC81FF1FE081FF1F0C4B1A88130A0C49CB56B3F1FF3F01D18B5601E008335BB2B3F1FF3F06D0074A52F823204D
:400F8000064B53F8220070474FF0FF30704700BF0083FF1F501900009C81FF1F1487FF1F30B4144B53F82020134C2368134951F823502560124C44F823004FF0FF3441F81D
:400FC0002340104951F82210A1420AD10E4951F820400E480188214301800D4941F8223002E0064840F82130064941F8223030BC704700BF3481FF1FFC82FF1F2081FF1F34
:401000001487FF1F5C81FF1FFC1A00000083FF1F9C81FF1F10B150F8210070474FF0FF30704700BF0122014B1A60FEE72083FF1F70B50546124B53F8306000241CE0104B93
:4010400003EBC50321465868FFF7E4FF0D4A52F82030013B42F820300B4B53F82030032B07D10222084B43F820200022074B43F82020FFF795FF0134B442E0D370BD00BFD7
:40108000501A00004881FF1FF481FF1FE882FF1F18B908B5FFF7CCFF08BD7047194B1A4ADA621A4A9A631A4ADA63EFF3108272B6184B1B6813BB10B5044600F053F8164BF8
:4010C0001C600122134B1A602046FFF7E1FFFFF745FFB0F1FF3F0ED0104B53F82030104A11680B43136000220E4B43F82020FFF7F1FE00F0DDF962B6FFF794FF82F310886D
:40110000072070470080FF1F7114000035140000910000002083FF1F448BFF1FE01A00000483FF1FF481FF1F08B5EFF3108272B6094B1968094B1B6833B94FF0FF30084B42
:4011400043F82100002000E0022010B9084600F008FA82F3108808BDDC81FF1F2483FF1F0C81FF1F10B5EFF3108472B600F050F9034A136843F07F43136084F3108810BD83
:4011800020ED00E008B511490020FFF781FA07210020FFF791FA00220D4B1A7072220D4B1A70202201331A700B490120FFF770FA07210120FFF780FA0622084B1A7047225B
:4011C00010331A70022251331A7008BDE11200000C83FF1F88650040791300002A65004010B500F00DF904460D4A137843F0200313700132137843F010031370094A012345
:40120000136009490B7843F010030B70022307490B60136000F0DCF8204600F0F5F810BD9865004000E100E09B65004080E200E008B5054B5B7823B9FFF7A4FF0122024B39
:401240005A70FFF7CDFF08BD0C83FF1F164BD9799B79DBB2994205D25A1E914214BF0022012204E0CA1A632A14BF00220122002AECD1994207D10D4B1B7813F0040F02D12C
:401280000B4B18707047632900D90021094B58540131054BD971054B1B7813F0020F02D00222054B1A6070470C83FF1F6B6500404B6500403091FF1F00E200E038B5074B4C
:4012C0005B782BB938BDFFF7C1FF0134A4B201E005460024285D0028F5D138BD0C83FF1F1D4B1B78DBB213F01E0F05D01B4803F01E0201780A43027003F0200303F0FF0257
:4013000033B3174B1978C9B2164B1B78DBB21648C154164B1B7813F0FF0F02D00121144B197010490B780133DBB20B700B78DBB2632B02D900210B4B19700A4B1978C9B292
:401340000C4B1B78DBB2994202D10121074B1970002AC5D1704700BF696500400C83FF1F486500400F83FF1F9491FF1F1083FF1F1183FF1F0E83FF1F13E0104B1B78DBB2FA
:40138000632B02D900220D4B1A700C4A1378DBB20B49CB5CDBB20B490B7013780133DBB21370064B1B78DBB2074A1278934204D0064B1B7813F0040FDFD070471283FF1FA4
:4013C0003091FF1F4B6500401383FF1F6B650040054A137843F0010313701032137843F001031370704700BFA2430040000000000230800803D000BF01380046FCD1704755
:40140000EFF3108072B6704780F31088704700BF18484FF47F0102680A43026016486FF07F4102680A400260704714484FF080510160704772B611484FF000610160FFF758
:401440000BFD0F48006800F0C3F858B10C4800684FF080730B4A0C490FB40FB46FF00600004700BF6FF0060062B6004762B600DF08B0704720ED00E01CED00E004ED00E097
:401480002883FF1FB11400006D140000EFF30880054908600548006880F3088870470248006880F3088870473882FF1F2482FF1F411C8900154A11440968154A13689942C6
:4014C0001AD0F0B444464D4656465F46F0B400B5104C9B002344EFF308851D60116089002144096881F3088802BC8E46F0BCA046A946B246BB46F0BC002806DB00B500F023
:401500005BF802BC8E46FFF7D3BF7047381B00000883FF1F2882FF1FF0B444464D4656465F46F0B400B5EFF3038308B48000174901440968164A0244EFF308831360884759
:401540001448804704BC4FF08070024382F3038801BC8646F0BCA046A946B246BB46F0BC704780000A4901440A6882F3088804BC4FF08070024382F3038808BC9E46F0BC97
:40158000A046A946B246BB46F0BC7047101B00002887FF1F9915000008B572B6014B1868FFF7DFFFDC81FF1F08B5024B1868FFF7B3FF08BDDC81FF1F08B562B6FFF7F4FF24
:4015C00072B600F041F8014B186808BD2883FF1F00280BDA20F000400130054B53F82000044B1B68181A18BF0120704701207047381B00000883FF1F054B53F82020054B45
:4016000053F820309A4201D101207047002070474881FF1FCC1A000008B5FFF75BFC084B53F8203043B10022054B43F8202040F00040044B186008BD024B186008BD00BFC7
:40164000C082FF1F2883FF1F38B5364B1C680022354B1A60354A52F82430013342F82430334B53F824502046FFF7C6FF012801D0A54204D103222F4B43F8242003E002221B
:401680002C4B43F824202C4B53F824102B4A136823EA010313602A4B53F82440214B1C60B5F1FF3F0FD0234B53F82530032B07D10222204B43F825200022224B43F82520C9
:4016C0002846FFF76DFCFFF749FCB0F1FF3F0BD1B4F1FF3F03D00022164B43F8242044F00044194B1C6038BD184B53F82020134B1B689A4208D800220E4B43F8242044F069
:401700000044114B1C6038BD00210A4A42F82010094A52F820201343084A1360FFF77CFF38BD00BFDC81FF1F1883FF1F4881FF1F0C81FF1FF481FF1FE01A00000483FF1FA4
:40174000E081FF1FE882FF1F2883FF1FFC1A0000014B1868704700BF9C82FF1F0E4B70B51E460E4C0025E41AA410A54204D056F8253098470135F8E700F02CFA084B094CE2
:401780001E46E41AA4100025A54204D056F8253098470135F8E770BDE01B0000E01B0000E01B0000E81B000010B5431E0A44914204D011F8014B03F8014FF8E710BD0346CB
:4017C0000244934202D003F8011BFAE770470000000000005541525420496E697469617465640A0053656E6420656E67696E65207370656564206F6E20554152542C206CEA
:40180000656420676C6F770A0000000053656E64206272616B656C69676874206F6E20554152542C206C656420676C6F770A0000A9010000010000000100000011020000B9
:4018400002000000010001000102000064000000750200000A00000001000000000000008D03000000000000000000000000000000000000000000000000000000000000EB
:401880000000000000000000910300000000000000000000000000000000000000000000000000000000000000000000000000000000000002000000000000000100000091
:4018C000D418000000000000000000000000000000000000020000009503000000000000010000000000000001000000001900000000000000000000000000000000000047
:4019000003000000005100401000205100405000F0510040100000000140001000140140000480180140800300400140000A004C01400002005001402000000060520040AE
:401940008C020048060000180140940200488000FF000101020202020303030303030303040404040404040404040404040404040505050505050505050505050505050523
:4019800005050505050505050505050505050505060606060606060606060606060606060606060606060606060606060606060606060606060606060606060606060606B7
:4019C0000606060606060606060606060606060607070707070707070707070707070707070707070707070707070707070707070707070707070707070707070707070737
:401A000007070707070707070707070707070707070707070707070707070707070707070707070707070707070707070707070707070707070707070707070707070707E6
:401A40000707070707070707070707070707070701000000581A00000000000000000000040000000000000000000000FFFFFFFF0000000002000000000000000000000081
:401A8000FFFFFFFF000000000000000000000000000000000100000000000000000000000100000000000000010000001027000001000000000000000000000000000000EF
:401AC000010000000100000000000000010000000100000001000000010000000100000080000000020000000400000008000000100000000100000002000000010000003D
:401B00000200000004000000080000001000000051010000A50100004D0200002102000009030000A9150000A9150000A9150000A9150000A915000000000000000000005B
:401B400000000000010000000200000003000000616C726D5F6A6F79737469636B000000616C726D5F656E67696E650065765F6A6F79737469636B5F6F6E44617461000003
:401B800065765F73706565645F6F6E446174610074736B5F696E69740000000074736B5F6261636B67726F756E64000074736B5F6F7574707574000074736B5F636F6E7427
:401BC000726F6C0074736B5F696E70757400000043000000F8B500BFF8BC08BC9E4670474D00000025060000F8B500BFF8BC08BC9E46704729000000081C0000C880FF1F4B
:401C0000D8010000580F0000000000000000000000000000D81800000000000000000000AC18000000000000000000008418000000000000000000005C180000501B000035
:401C4000601B000000000000FFFFFFFFFFFFFFFFFFFFFFFFFFFFFFFFFFFFFFFFFFFFFFFF01000000020000000300000004000000FFFFFFFF000000000100000002000000F8
:401C800003000000040000000100000001000000010000000100000001000000FFFFFFFFFFFFFFFFFFFFFFFFFFFFFFFFFFFFFFFFFFFFFFFFFFFFFFFFFFFFFFFFFFFFFFFF3C
:401CC000FFFFFFFFFFFFFFFFFFFFFFFFFFFFFFFFFFFFFFFFFFFFFFFFFFFFFFFFFFFFFFFFFFFFFFFFFFFFFFFFFFFFFFFFFFFFFFFFFFFFFFFFFFFFFFFFFFFFFFFFFFFFFFFF24
:401D0000FFFFFFFFFFFFFFFFFFFFFFFFFFFFFFFFFFFFFFFFFFFFFFFFFFFFFFFFFFFFFFFFFFFFFFFFFFFFFFFFFFFFFFFFFFFFFFFFFFFFFFFF030000000300000003000000CE
:401D400003000000030000006C1B0000801B0000901B00009C1B0000AC1B0000B81B0000C41B00003091FF1F00000000EC86FF1F088FFF1F1C8BFF1F000000000000000077
:401D800000000000000000000000000000000000000000000000000000000000D01B0000000000000000000000000000000000000000000000000000000000000000000038
:401DC000000000000000000000000000000000000000000000000000000000003C82FF1F000000000000000000000000000000000000000000000000000000000000000007
:401E000000000000000000000000000000000000000000000000000000000000000000000000000000000000000000000000000000000000000000000000000000000000A2
:401E40000000000000000000000000000000000000000000000000000000000000000000000000000000000000000000000000000000000000000000000000000000000062
:401E80000000000000000000000000000000000000000000000000000000000000000000000000000000000000000000000000000000000000000000000000000000000022
:401EC00000000000000000000000000000000000000000000000000000000000000000000000000000000000000000000000000000000000000000000000000000000000E2
:020000040003F7
:0200000480007A
:400000000365004001150140011701401418014035190140701A01404B1B0140034001400241014002420140024301400448014003490140094D0140025001400151014010
:40004000887289388B0FE602E6018A049204950196029A02A401A801AC01B002B204B601B701BE05BF40D418D604D804D904DB04DF0102040410050906C109150E290F80C9
:400080001022111017291B451C101DA01E481F0420022504261027022D082E812F043308369837013E2A3F8045A446404F80551056045B025E406080630A6C226D106E04F0
:4000C000762B772880808E84C0F2C2FEC477CAF0CCF2CEF0D0F0D210D611D80D00DC02220410058006AC0713092C0A030B430C090ED0141419711B061F0820102240230CBA
:400100002620280C29712A712B0E31C0321F333034E0350F390A3A223B203F044003454049FF4A074BFF4C404D204EF04F055008580459045A045F01604061A862406320CA
:40014000800A82148440850C86208813890C8A0C8C808E209108930494139510960498E09B109C209EC0A102A208A504A615A709A8E0AB10AC03AD10AE14B010B110B3018A
:40018000B40FB502B6E0B70CB902BA20BE01BF10C036C102C50BC60EC7C0C825C9FFCAFFCBFFCEF0CF44D00CD401D604D804D904DA04DB04DF01E6C0EA40EB02008503081E
:4001C00004010518068007010A200C040E051084110414401516160119211B0A1C041D101E4120802119250126082709284429202D092F863090311036143701380839249A
:400200003D103E044108441448804C044E105004560357805C205D015E405F086740874089188A808C208E0291109204930896019D099F01A214A501A608A708B001C0FF88
:40024000C2E4C4FECAF5CCECCE66D062D220D6F0D88032403620CC309680A6209680A6209680A62082409680A620E6808620A620E6401040750288409902B102C408DE04B0
:40028000E201E80110011C01000F000080800000400000003F100000010880001F182000080000E3008023001C002304333C0CC203E7401802C08000044400000C1C00E1E3
:4002C00000FF000010002C380F1FC0C00000282000004100250403000100C00E18FFFFFF62A0F0410C00000000000210040404040000000100000000000040020010301050
:400300000010101200000000000000000000000000000000800040808000800000000000000B0B000000000000000000000000000000000000000000000000000000000035
:40034000000000000000000000000000000000000000000000000000000000000000000000000000000000000000000000000000000000000000000000000000000000007D
:40038000000000000000000000000000000000000000000000000000000000000000000000000000000000000000000000000000000000000000000000000000000000003D
:4003C00000000000000000000000000000000000000000000000000000000000000000000000000000000000000000000000000000000000000000000000000000000000FD
:4004000000000000000000000000000000000000000000000000000000000000000000000000000000000000000000000000000000000000000000000000000000000000BC
:0200000490006A
:0400000000004005B7
:0200000490105A
:04000000BC90ACAF55
:0200000490303A
:020000000CFEF4
:0200000490402A
:4000000000000000000000000000000000000000000000000000000000000000000000000000000000000000000000000000000000000000000000000000000000000000C0
:400040000000000000000000000000000000000000000000000000000000000000000000000000000000000000000000000000000000000000000000000000000000000080
:400080000000000000000000000000000000000000000000000000000000000000000000000000000000000000000000000000000000000000000000000000000000000040
:4000C0000000000000000000000000000000000000000000000000000000000000000000000000000000000000000000000000000000000000000000000000000000000000
:0200000490501A
:0C00000000012E16106900012E211D6762
:00000001FF